:020000040000FA
:031000000210D308
:03100B00023B2382
:03101300024D216A
:031023000241B5D2
:03102B00024FBDB4
:03103300024FA5C4
:03104300024EEC6E
:03104B0002551536
:03107B00024F839E
:10108300024B0B00000080FB1210E2B900030210B8
:10109300CDE490F20178BB79018002F0A3D8FCD9AA
:1010A300FA90F2BBAA82AB839010E5785B79028059
:1010B30015E493A3AC82AD838A828B83F0A3AA82C7
:1010C300AB838C828D83D8E9D9E7122E3112108637
:1010D30075D0007581AF752901752AF202108B79DD
:1010E30001224F4B0D004552520D00454E435259BC
:1010F3005054494F4E2042555359202D2054525994
:1011030020414741494E0D003833004F4E4542556B
:101113005456320043697365636F4E6F7474696E1E
:101123006768616D004E4F4E450D0014000000CE00
:10113300FFFFFFCFC1010000F000000000010089A4
:10114300130000E9030000330000005354415254DC
:10115300454400534C454550494E47004150564580
:1011630052312E32004F4E454255545632004845B7
:101173004C4C4F0046564552383342000000404025
:1011830080EE360000E0FF44000070400000204184
:1011930000000040041EF03A0AD7A33B77770844C7
:1011A3000000003F3030364800425554544F4E0043
:1011B30053544154450080250000F09C09001E0053
:1011C30000000A000000E093040003000000040094
:1011D3000000E8030000060000004157414B4500B2
:1011E300534C454550494E4700030606060606067E
:1011F30004070707070707040000DFBE00072042B4
:10120300012E9302002E93020F00000065000000E0
:101213000000000000D26CFD01000000010020412D
:10122300001BB74B0000004400807FC360EA00004E
:0C123300005C26050000803FD0FFFFFF9C
:1012400043AE0100220043AE0222E066701008A304
:10125000E066700A08A3E066700408A3E06622C393
:10126000E09608A3E09608A3E09608A3E096A2D231
:1012700065D03322C3E7960809E7960809E7960880
:1012800009E79622C3E09608A3E09608A3E0960833
:10129000A3E09622C021C3E096F52108A3E0964280
:1012A0002108A3E096422108A3E09645217001D3CE
:1012B000D02122080808E630E711121BB51212CB24
:1012C000080808C64480C618181822181818E979A2
:1012D0009EC608CAC608CBC608CCC6C3702079967D
:1012E000CACBCC7019798ECBCC70137986CC700EAA
:1012F000F9802ACA33CACB33CBCC33CC331930E78D
:10130000F2CCCBCA3350147004EA30E00DE4CA3A90
:10131000CACB3BCBCC3CCC500209C3E913C6CC189A
:101320002313C6CB18C6CA18C6F9228A218B228C71
:10133000238D24782112137520F01430E72B74FFCD
:10134000FCFBFA747F8022E4FCFBFA7480801AB400
:101350008008BC00F2BB00EF800F50EBF9E4C39AA9
:10136000FAE49BFBE49CFCE499C6CC18C6CB18C6F7
:10137000CA18C6F922E4C9C608CAC608CBC6D33300
:101380000308CCC63392F0C3947F402E94184019C2
:10139000C9B90704CACBCC225025C309CA33CACB6A
:1013A00033CBCC33CC33D9F422F4600DC9CCC31386
:1013B000CB13CBCA13CAD9F6CC22E4FCFBFA221415
:1013C000FCFBFA22E6C33318461846184622E7C348
:1013D0003319471947194722181818E608460870A4
:1013E0000AE608C3337005E633F4220822191919F6
:1013F000E7094709700AE709C3337005E733F422A8
:101400000922E6084608C3134608336002E633F4AF
:1014100022E7094709C3134709336002E733F4227F
:10142000121402601C12141160171213C4700712F8
:1014300013CE7001D322C0D01213CE7006D0D0B319
:1014400022C32233D0D0501430E0F6C3E796080907
:10145000E7960809E7960809E796B32220E0D5E663
:10146000970809E6970809E6970809E697B3221254
:101470001402601B12141160161213C470071213A9
:10148000CE600CB322C0D01213CE7005D0D022C3D0
:101490002233D0D0501330E0EBC3E7960809E7962B
:1014A0000809E7960809E7962220E0E4E69708098C
:1014B000E6970809E6970809E697220012140260E9
:1014C0004F1214116012E7548066F61213D870118F
:1014D0001213CE703B090909F4F618F618F618F63F
:1014E000221213ED70151213C408080860EAE644CE
:1014F0007FF618768018E4F618F6221213C46016E8
:101500001213CE7012E4F608F608F608E65480F6D8
:1015100009090918181822EAC0E0EBC0E0ECC0E0A5
:10152000EDC0E0E687F0A4FBACF008E687F0A42C61
:10153000FCE435F0FA1809E687F0A42C4B6002743D
:1015400001CA35F0FCE433FB09E687F0D2F7A42C9E
:10155000CB35F0FC1908E687F0A42BCC35F0FBE482
:1015600033FD0819E687F0D2E7A42C4ACB35F0CD3D
:101570003400FC09E687F0D2E7A42DCC35F0FDE479
:1015800033FA0918E687F0D2F7A42CCD35F0CA3427
:1015900000FC08E687F0D2E7D2F7A42ACC35F07A2F
:1015A0007E20E70B0ACB33CBCD33CDCC33CC33CB42
:1015B0003350147004ED30E00ED2F1E4CD3DCDCCCB
:1015C0003CCC3B5005DA05C2F1EB547FC63308E64C
:1015D0003392F0FBE73309E733C39A502D2B701990
:1015E0000C0D4C4D70151806E608C333700D20F134
:1015F0000AA2F013F6E418800B4024E4F630F0025F
:10160000768018F618F618F68024D33B1450107420
:10161000FFA2F013F6187680E418F618F6800FA2F1
:10162000F013F618E63303F618ECF618EDF6D0E0F2
:10163000FDD0E0FCD0E0FBD0E0FA221214116046AD
:10164000121402603DE9687008F618F618F618F6EC
:1016500022748067F712166F090909748067F722F0
:10166000121402601D1214117005191919801A1232
:1016700013D8701F1213EDC37003E66733191919DD
:1016800040071818182208080874FFF618F618F60C
:1016900018F6221213ED60171213CE702192F01279
:1016A00013C47019501720F014080808090909E735
:1016B000F61819E7F61819E7F61819E7F6221213C3
:1016C000C460E6E869701F0808E62480F608E4367E
:1016D000F618547FB47F0CE654806007F6E418F6E1
:1016E00018F622181822E9C6CC08C6CD08C6CE08BE
:1016F000C6CFC0E0E8C0E0EAC0E0EBC0E009E9F82E
:1017000009E7FA09E7FBE6F918E6F8C3EC98ED9962
:10171000EE9AEBC2E7F5F0EFC2E795F0500E600CE1
:10172000EBCFFBEACEFAE9CDF9E8CCF8EAA2E7D2B2
:10173000E7FAEB33FB13F5F0EEA2E7D2E7FEEF3367
:10174000FFC5F013A2E730E601B313C5F0C3C0E054
:10175000C0F07F00C39BFB605B9418600C401AD004
:10176000E023F9D0E0F802183E8AF0E9486003D29D
:10177000F0E4AFF0FAF9F8803BEB30E40D89F0EAE1
:101780006003D2F0E4AFF0F9CAF8EB30E30D88F073
:10179000EF6002D2F0AFF0E4CAC9F8EB540760146E
:1017A000FBC3EA13FAE913F9E813F8EF135002D276
:1017B000E0FFDBEDD0E0C0E030E739C3E49FFFF5A8
:1017C000F0EC98FC42F0ED99FD42F0EE9AFE42F00A
:1017D000D0E0F9D0E0F8E5F0607AE923F9EE20E70F
:1017E00042D8028067C3EF33FFEC33FCED33FDEEEC
:1017F00033FE80EAEC28FCED39FDEE3AFED0E02322
:10180000F9D0E0F84002801BC3EE13FEED13FDECAF
:1018100013FCEF135002D2E0FF08B800067F7F747C
:10182000FF802EEF3350178CF020F00260100CBCBC
:10183000000C0DBD00080EBE000408E860DFE933AF
:10184000E813FFEE2313FE4F4D4C8008E95480FF50
:10185000E4FEFDFCEE33EF33F47004FCFD7E80D03B
:10186000E0FBD0E0FAD0E0F8D0E0CFC618CEC61842
:10187000CDC618CCC6F9221214027004181818220A
:10188000121411700D74FFF61819F61819F61819BC
:10189000F622E7548066F61213C4700F1213CE704E
:1018A000F014F608F608F608F680D11213CE700C84
:1018B000F608F608768008E6447F80EC1213F07094
:1018C0000C1213DB60BFE65480F6E480BB1213DB1E
:1018D000700519191980A5E869700C763F18768093
:1018E00018F618F6E8F922E6CDC0E018ECC0E0E6FC
:1018F00033CD33CDD313F6E719FCE7191933CC33C5
:10190000C3947F400ECD9D502408E65480F6E41821
:10191000F6800FF4043D14501408E6447FF6187660
:1019200080E418F618F6D0E0FCD0E0FD22CCD3130A
:10193000CCFD18E4C6CBC0E018E4C6CAC0E0080875
:10194000ED08C633E613F618E433C675F003C3CAD0
:1019500097CA09CB97CB199C40047D08802EBD0007
:1019600003021A2016B6FF050606081618C3CA3366
:10197000CACB33CB33CA27CA09CB37CB193CC37D7B
:1019800008803E187D0820E75CC633C6CA33CACB40
:1019900033CB33DDF1D5F0EB30E77BCA97CA09CB07
:1019A000974ACB199C406F4B7025E620E02180665A
:1019B000187D08C3CA97CA09CB97CB199CD3C633E5
:1019C000C6CA33CACB33CB3350C9DDE7D5F0E1D338
:1019D000E4C636C608C636C608C636C608C636C603
:1019E0001818188031C3CA97CA09CB97CB199CB372
:1019F0004097C633C6CA33CACB33CB33DD34D5F0B8
:101A00002EC6A2E0C640C8CA27CA09CB37194A70F9
:101A1000BECB3CB480B90808E63308E633601F1833
:101A20001818D0E0FAD0E0FBD0E0FCD0E0FD22189E
:101A30007D08CA27CA09CB37CB193CD3808013F65F
:101A400018E4B67F11F618B6FF0EF618C60470D269
:101A50000808768080CAF618F618F680C5080808C7
:101A6000EAC0E0EBC0E086F0E7A4FA180986F0E7E8
:101A7000A42AFA180986F0E7A42AFA180986F0E7DA
:101A8000A42AFA1986F0E7A4FBE5F02AFA190886D9
:101A9000F0E7A42BFBE5F03AFA190886F0E7A42B4F
:101AA000FBE5F03AFA18180986F0E7A4C5F02BFB1D
:101AB000E43AFA1908E7C5F0C6A426F6E5F03BFBC0
:101AC000E43AFA1886F0E7A4F6E5F00826F6E43BD7
:101AD00008F6E43A08F6D0E0FBD0E0FA22E4CFC002
:101AE000E0E4CEC0E0E4CDC0E0E4CCC0E075F0209E
:101AF000C3E633F608E633F608E633F608E633F6CF
:101B0000181818EC33FCED33FDEE33FEEF33FFC352
:101B1000EC9709ED9709EE9709EF97191919400FFE
:101B2000FFEC97FC09ED97FD09EE97FE191906D514
:101B3000F0BEECF709EDF709EEF709EFF7191919FF
:101B4000D0E0FCD0E0FDD0E0FED0E0FF22121BB8D8
:101B5000181818121ADD121BA419191922121BA425
:101B6000191919080808E618181820E7E0121ADDF4
:101B7000121BB818181822090909E719191920E7C2
:101B8000DC080808E618181820E703021ADD121B03
:101B9000B8181818121ADD121BB8181818121BA43E
:101BA00019191922E4C397F709E497F709E497F79D
:101BB00009E497F722181818E4C396F608E496F695
:101BC00008E496F608E496F6226016080808C6C3EC
:101BD00013C618C613C618C613C618C613C6D5E052
:101BE000EA227009080808226016181818C6C333BC
:101BF000C608C633C608C633C608C633C6D5E0EA2B
:101C000022E627F60809E637F60809E637F6080956
:101C1000E637F622E026F608A3E036F608A3E0361B
:101C2000F608A3E036F622E026F008A3E036F00836
:101C3000A3E036F008A3E036F022C3E697F60809E1
:101C4000E697F60809E697F60809E697F622C3E054
:101C5000C696F608A3E0C696F608A3E0C696F60870
:101C6000A3E0C696F622E0F608A3E0F608A3E0F6A5
:101C700008A3E0F622E6F008A3E6F008A3E6F008E1
:101C8000A3E6F022E0FAA3E0FBA3E0FCA3E0FD2240
:101C9000EAF0A3EBF0A3ECF0A3EDF022CAC0E0E67B
:101CA000F0A308DAFAD0E0FA22CAC0E0E0A3C582C5
:101CB000CCC582C583CDC583F0A3C582CCC582C502
:101CC00083CDC583DAE6D0E0CA22C3E498F8E4996C
:101CD000F9121D0B8026C3E49AFAE49BFBE920E786
:101CE000E9121D0BE498F8E499F922C3E498F8E4AA
:101CF00099F9121D0BE498F8E499F9C3E49AFAE40F
:101D00009BFB22EB20E7CFE920E7E0B90010BB0006
:101D100008E88AF084F8AAF022E4FBC8FA22EB7003
:101D2000227B10C833C8C933C9335007C39AC3DBF9
:101D3000F280069A50012ADBEAC833F4C8C933F4AA
:101D4000C9FA2275F008E4C833C8C933C933C99A3F
:101D5000C99B5004C92AC93BD5F0ECFBC833F4C871
:101D6000E4C9FA22600D08C6A2E713C618C613C656
:101D7000D5E0F322600C08C6C313C618C613C6D537
:101D8000E0F422700422600D18C6C333C608C633BF
:101D9000C6D5E0F41822252910AF08F52940021510
:101DA0002A8008F5294002152AD2AF22C0D0252961
:101DB00010AF08F5295002052A8008F529500205C0
:101DC0002AD2AFD0D0222529F58210AF08F52940BC
:101DD00002152A8008F5294002152AD2AF852A83E8
:101DE000222529F582E4352AF583222529C582C0DA
:101DF000E0E52A34FFC583C0E0E529C3958224F9D4
:101E000010AF0885832A858229800885832A8582E8
:101E100029D2AFCEF0A3E520F0A37821E608F0A305
:101E2000DEFAEFF0A3E58124FBF8E608F0A3E6086C
:101E3000F0A30808E608F0A3E608F0A315811581D1
:101E4000D0E0FED0E0F815811581E8C0E0EEC0E0FA
:101E500022852A83852982E0A3FEE0A3F52078214C
:101E6000E0A3F608DFFAE0A3FFE0A3C0E0E0A3C030
:101E7000E0E0A3C0E0E0A3C0E010AF0885822985C0
:101E8000832A800885822985832AD2AFD083D08295
:101E90002274048006740280027401C0E0F404120B
:101EA0001DC6D0E0121C9C227404800474028000C1
:101EB000CCC0E0EDC0E0E529C39CCCAD2A50011DAB
:101EC00010AF068C298D2A80068C298D2AD2AF125C
:101ED0001CA9D0E0FDD0E0FC222020000000000082
:101EE0004143020000000043430600000000434855
:101EF000012CF50106434E0132F500FF4353013139
:101F0000F519FF444E08000000004452012FF5016E
:101F10000745410E000000004545014AF500014516
:101F20004B0D0000000049440B1FF500004C4422FB
:101F3000000000004D590F1DF50000504712000031
:101F40000000504C0129F5000851510156F50001DF
:101F5000524515000000005254014FF500FF534454
:101F60002166F50000534E1C00000000535001583C
:101F7000F5000253521D0000000053530159F500B3
:101F80000154520150F500FF56521800000000574E
:101F9000521B000000005A5424000000005A59014E
:101FA00061F500025A5A1F00000000000000000006
:101FB00000000941434B2D2D2D2D2D2D010000003A
:101FC0000041505645522D2D2D2D07000000004494
:101FD0004556545950452D2D0800000000444556E3
:101FE0004E414D452D2D090000000048454C4C4FF9
:101FF0002D2D2D2D0A0000000353455223232323AA
:1020000023230B000000002445522D2D2D2D2D2DB6
:102010000C00000000465645522D2D2D2D2D0D0093
:102020000000074348444556494423230E0000005E
:102030000550414E4944232323230F000000005242
:1020400045424F4F542D2D2D10000000075245548E
:10205000524945532323024EF50204424154542D64
:102060002D2D2D2D2200000007424154544D534781
:10207000232D0257F5010442544C4F5723232323A9
:102080004900000004534156452D2D2D2D2D3400BF
:10209000000004525353492D2D2D2D2D42000000D8
:1020A00000494E54564C23232323210000000043B3
:1020B00059434C452D2D2D2D200000000057414B3C
:1020C000452D2D2D2D2D180000000557414B454362
:1020D0002323232D026AF50306534C4545504D2317
:1020E0002323022BF50305534C454550232323237B
:1020F0001700000000434F4E4649475253543900E1
:102100000000004C4C4150524553455439000000EA
:10211000034445422323232323230472F506035358
:102120005453232323232323048BF506034D5347C2
:10213000232323232323066BF5060343534E232334
:10214000232323230678F506004431454E30572DCE
:102150002D2D43000000632020202020202020205F
:1021600000000000030D1D26578E83C7C0030D1D00
:1021700026578E83C7C0030E1E278F5084CBC212F2
:102180000E1D342C6084C8C0030E1E278F5084CBD4
:10219000C2120D1C342B5185CBC200202600A02575
:1021A000AA2A24001012DD2D2400200D0C1D551329
:1021B00063B61D1CC700B0EA064AA31356B61D6CD1
:1021C000434091E90645A31356B61D6C434091E97F
:1021D000064C111356B61D6C434091EA064B111381
:1021E00056B61D6C434091E90E0E557000B61D1C8D
:1021F000C700B0EA0C1D551361B61D1CC700B0EA3C
:1022000000202020202020202020282828282820C6
:1022100020202020202020202020202020202020BE
:102220002088101010101010101010101010101026
:102230001004040404040404040404101010101016
:1022400010104141414141410101010101010101E0
:102250000101010101010101010101011010101032
:1022600010104242424242420202020202020202B2
:102270000202020202020202020202021010101006
:1022800020C082C0837CBB7DF28012C082C0837C70
:10229000BF7DF28008C082C0837CC47DF2122A19FF
:1022A000D083D0822274F8121DEBE9FE1222BA7498
:1022B0000F5E1222BD7F01021E51C4540FF9125647
:1022C000B31222C8123BE72290F6E3E0FAA3E0FB48
:1022D0002274F7121DEBEAFEEBFF8E218F227408A9
:1022E0007821121D64A9211222A5EEF91222A57FE0
:1022F00002021E51C082C08390F201E4F080A1C0AE
:1023000082C083EA4B700302245490F6E71222CB7A
:10231000123C7DE990F205F01255F3E9547F90F2FA
:1023200004F0640A7003022454E0640D702890F2F3
:1023300001E06402600AE064056005E0640670166E
:10234000122A3074DB28F582741E39F583E493F980
:1023500012246202244F90F201E0601914602914E3
:10236000604814606C24FE700302241B1470030286
:10237000240902244490F204E064416003022444EE
:1023800090F201740102245390F204E0645460035B
:1023900002244490F2017402F090F202E4F090F210
:1023A0000302245390F202E004F0122457F58274E1
:1023B0001E39F583E493F8700302244490F204E09C
:1023C0006870E190F201740302245390F202E00479
:1023D000F0122457F8741E39F988828983A3E49394
:1023E000FA90F204E06A601A88828983E493FAA37F
:1023F000A3A3A3A3A3A3E4936A60D090F2017404FF
:10240000805190F2017406804A90F204E0642090BA
:10241000F20170047405803B7405F090F203E0C390
:102420009420502090F205E0C0E090F203E0F874B0
:10243000A328F58274F63400F583D0E0F090F2031F
:10244000E004800F90F204E0640D70AF12228B90D4
:10245000F201E4F00222A012245B22122A3474D981
:10246000282274F1121DEB74FF121D96E985298252
:10247000852A83F090F203E0F97AA37BF612562CBA
:102480008A218B228C238D24852982852A83E060F2
:102490007D1470030225BC14700302256A24FE70AB
:1024A0000302264A24FE700302268E24FE60622464
:1024B000FD70030226AC24FE70030227AA147003E9
:1024C00002270014700302283824FD605D24FD609B
:1024D000681470030228AF24FE606424FD700302B8
:1024E00025AD1470030228D814700302294524FE78
:1024F000606D1470030225BC14700302296C147003
:102500000302289D24FE70030229960229BB02299A
:10251000B81229DB121C8412557B90F20DE0F8A34F
:10252000E0F5838882E4F00229BB1229DB121C84C7
:1025300012557B1255EA0229BB123E250229B87CAE
:10254000E17DF2122A1979421222C179201222C1A8
:102550007CE47DF2122A19790D1222C10229B89069
:10256000F2067401F090F20780BB1229DB121C8482
:1025700012557B90F54AE0F890F549F090F27160C1
:102580000474018001E4F090F552E090F551F09070
:10259000F55AE0600DE8700A90F524740CF0A3740D
:1025A00010F07900124C6212459E0229BB123DCAFE
:1025B000E960030229B812228B0229BB90F203E0E2
:1025C0007024122A20C0E0740193F583D082E0FECB
:1025D00074F05E6004EE1222BA740F5EF91256B304
:1025E0001222C1022557852982852A83E064207042
:1025F000030229B8122A108A828B83A3A3A3A3A360
:10260000E493F525E4F526F527F5287825792112B8
:10261000127440A28A828B83A3A3A3A3A3A3E493EF
:10262000F52578217925121274408B1229E5E5826F
:1026300064247004E58364F560030229B890F524EE
:10264000E0240F54F0A3F00229B890F203E07010D8
:1026500090F535E01222BB90F533122A0902255776
:102660008A258B268C278D2890F3087825121C1438
:1026700090F30C782512129450030225B6791C129F
:102680005D24E970030225B690F5330229B390F278
:1026900003E0700890F537E0F90225E0640160037B
:1026A0000225B690F6A3E090F537809A90F203E009
:1026B000700E122A20C0E0740193F583D082809AB4
:1026C00090F310782112129450030225B6122A10AA
:1026D0001229E5A3E522F0E8641F7003E964F560C0
:1026E000030229B890F51FE0F8A3E0F990F24BE857
:1026F000F0A3E9F090F281E521F0A3E5220226465D
:1027000090F203E0705290F26DE070461229CD7C99
:10271000107A387BF579001240C3E4F090F26DE056
:10272000640270F87A387BF5124078E4F07E157F09
:10273000F48E828F83E0F960031222C18E828F8330
:10274000A3AE82AF83EE64257003EF64F470E202FF
:1027500025571222950229BBC3941140030225B6C6
:1027600090F26DE070EC1229CD90F203E0FC7AA3B8
:102770007BF679011240C390F26FE4F090F26DE0C5
:10278000640270F8E4F0752110F5227821121E958C
:102790007C157DF47A387BF51262B97402121DAC97
:1027A0007A387BF51240780229B890F203E0702B5A
:1027B0007E157FF5EE2423F582EF3400F583E0F9F2
:1027C0001222A58E828F83A3AE82AF83EE64257022
:1027D00003EF64F5700302255780D964206003027B
:1027E00025B690F26DE060030227527521007EA3AA
:1027F0007FF68E828F83E0F9125602E9F522A3E07C
:10280000F9125602E9F8E522C454F028C0E0E521A7
:10281000C313F8743828F58274F53400F583D0E0DA
:10282000F005210521EE2402EF34000E0EFFE52114
:10283000C3942040BD0227A090F203E07021122A29
:1028400020C0E0740193F583D082E0F91222C11216
:102850002A20C0E0740193F583D082A302269764F6
:102860000260030225B690F6A3E0F91255F3E9C021
:10287000E0122A20C0E0740193F583D082D0E0F00A
:1028800090F6A4E0F91255F3E9C0E0122A20C0E066
:10289000740193F583D082A3D0E0022646123D1442
:1028A000E970097CFE7DF2122A19800312228190C0
:1028B000F203E0700690F52602265AE5211229C699
:1028C00070030225B690F31478211212945003027B
:1028D00025B690F5260226F790F203E070277E15C4
:1028E0007FF58E828F83A3A3E0F91222C18E828F9F
:1028F00083A3AE82AF83EE641B7003EF64F57003B5
:1029000002255780DD640660030225B690F517E0C6
:10291000642E60030229B87A157BF578A379F688CE
:10292000828983E08A828B83A3A31229FE8A828B09
:1029300083A3AA82AB83E864A97003E964F670DF1D
:10294000123DCA807390F516E060030225B674014B
:10295000F0781579F588828983A3A3742E1229FE55
:10296000E8641B7003E964F570EB80D490F203E037
:10297000700C90F568122A0990F56602265A122901
:10298000C570030225B690F5667821121C7590F289
:10299000AC740102264690F203E0700C90F55D12D3
:1029A0002A0990F55B02265A1229C570030225B642
:1029B00090F55B7821121C751222817401121DACF6
:1029C0007F08021E51EA452245234524227AED7BE9
:1029D000F212407890F26F7401F022122281124DAF
:1029E0009790F30422EA2403F582EB3400F583E4A4
:1029F00093F8740193F988828983E521F022F088A5
:102A0000828983A3A882A983221222CB1222D122F7
:102A100012245BFA741E39FB221222C8123C5F2278
:102A2000122A3074DC28F582741E39F583E493226F
:102A3000122A342290F202E075F007A4F8A9F022DD
:102A4000C082C083122CC690F51FE0F8A3E0F99075
:102A5000F281E8F0A3E9F0D083D0822274F5121D50
:102A6000EB90F20D7408F0A374F2F090F20F74DFA3
:102A7000F0A374F6F090F2117409F0A374F2F090E0
:102A8000F6E7E0FAA3E0FB122CB2F890F217E07040
:102A900043E8701290F20F122C57121C8490F2111E
:102AA000122C57121C90122C54E064016003022B6C
:102AB000F5122D4790F20F122C577821121C4E90D0
:102AC000F31878211212944003022BF5122C54E4CF
:102AD000F0022BF5E87045122D4790F211122C5799
:102AE0007821121C4E90F31C7821121294502D1252
:102AF0002C8FF8122C83E028FAA3E034008A82F5A8
:102B000083E0F890F537E0687012122C547402F0EC
:102B10001254F690F213121C90022C39122C687089
:102B200003022BF57401687020C2AF90F20F122CD3
:102B300057121C8490F213121C90D2AF90F217E03F
:102B4000FA7B001222FF022C397404686013122CE5
:102B50003E121C4E90F31C78211212945003022A4C
:102B6000CC122C68740268702790F217E0C39402AC
:102B70005003022BF5122C8F2401122C74121D030A
:102B8000122C9B7008122C547403022AD0022ACCF7
:102B9000740368702190F217E0C394034057122C1D
:102BA0008F2402122C74121D03122C9B70DF122C26
:102BB000547404F08036740468703A90F217E0C3DD
:102BC000940450C9122C3E121C4E90F31C78211212
:102BD00012945021122C547401F01222F490F6E752
:102BE000122C6D122C6D122C471222811254F69069
:102BF000F213121C90122CC690F20D7408F0A374FC
:102C0000F2F07AD97BF6122CB2702B800690F6E7A0
:102C1000122C4790F6E7122C57A3A3A3E0F890F6E6
:102C2000E7E0F9A3E0F5838982A3A3A3A3E068709A
:102C3000DC90F217E4F0122CDB7F04021E51122DFF
:102C40004B90F213782122122C4B22E0FAA3E0FBE6
:102C5000123C7D2290F20D122C5B22122C5F22E09E
:102C6000F8A3E0F583888222122CBEF822122C4BA6
:102C700090F6E722F8E43400F9122C83A3A3E0FADB
:102C80007B002290F6E7E0FAA3E0F5838A822290A7
:102C9000F6E7122C5BA3A3A3A3E02290F6E7122C85
:102CA000C12AF8A3E03B8882F583E0F890F537E08D
:102CB0006822123CDFE990F217F0122CBE2290F24B
:102CC0000D122C5FE02290F6E374D3F0A374F6F0BB
:102CD00090F6E774D9F0A374F6F02274F5121DEBA8
:102CE00090F227E0605E90F291E064106056122D41
:102CF0004790F2737821121C4E90F3207821121223
:102D000094504175210C7522007821121E957C1873
:102D10007DF290F271E0F8749828FA74F53400FBB3
:102D20001262B97402121DACE0F8749528F5827431
:102D3000F53400F583740CF090F227E014F090F273
:102D4000727401F0022C39122D4B221254F68A2192
:102D50008B228C238D2422C082C0831254F690F2E1
:102D600077121C901233E9022A57C082C0831246A0
:102D700072124807122A5C124D9790F291E064108B
:102D8000600F90F272E0700990F227E07003123049
:102D9000647900122EF290F206E0606590F6E3E0AE
:102DA000FAA3E0FB123CDFE9F87442C398F895E01F
:102DB000F9C3E89429E99400A2D265D03340429047
:102DC000F207E0C394805029E0F8741528F5827466
:102DD000F53400F583E0F91222A590F207E0541FC4
:102DE000641F7003122E2390F207E004F0540F705A
:102DF000CEE06480700B122E2312228190F206E442
:102E0000F090F291E06410601590F272E0700F9013
:102E1000F227E0700990F29DE0700312534CD083CA
:102E2000D08222790D90F6E3E0FAA3E0FB123BE7B3
:102E30002253BEFB78697903C292E824FF18E93473
:102E4000FFF9E84970F2E5BEA2E650FA53C6B8E5CC
:102E5000C6A2E640FA43BE0412555753F5F943FFA4
:102E60000853F76FC2A390F224E4F0A2A44008D262
:102E7000A3A2A4500204F075FF00E0A2E0500512E6
:102E80003E258006123D14E960F590F51DE090F2B4
:102E900049F090F51EE090F24AF090F51FE0F8A39B
:102EA000E0F990F24BE8F0A3E9F090F281E8F0A3AA
:102EB000E9F07A387BF51240787901124C621245BC
:102EC0009E122A4090F225E4F01232F690F2AC7491
:102ED00001F0122D6A80FBC082C083A2A3E433906C
:102EE000F237F0A3F0A3F0A3E4F0124F1FD083D089
:102EF000822274F5121DEB90F291E06410700302CF
:102F0000304490F272E0600302304490F227E060B7
:102F10000302304490F249E090F235F090F24AE03A
:102F200090F236F090F54BE0F86012742D68600D69
:102F3000E890F249F090F54CE090F24AF0A2A3E458
:102F40003390F237F090F23AE090F2376019E0F8FF
:102F500090F239E068602D90F237E090F239F0128B
:102F600054F690F23B801AE0F8A3E0687003023058
:102F70003490F237E090F239F0A37401F01254F675
:102F8000A3121C9090F23AE070030230341254F60F
:102F90008A218B228C238D2490F572C08290F23B83
:102FA0007821121C4E7583F5D0827821121284404C
:102FB0000302303490F23AE4F090F237E0F8A3E004
:102FC00068607190F237E0A3F07C00781579F57AAB
:102FD000297BF28015ED8A828B83F00CA3AA82AB49
:102FE0008388828983A3A882A983E82456F582E98D
:102FF0003400F583E0FD6006ECC3940640D78C21D5
:1030000074292521F874F23400F990F2371232F065
:103010007009744F123049744E8008744F12305E3C
:1030200012305E123049E4F090F54EE0F97A297BD7
:10303000F212323D90F235E090F249F090F236E033
:1030400090F24AF07F04021E5112304D22F00C8C97
:103050002174292521F58274F23400F5832212307F
:103060004D74462274F1121DEBE490F2297809F0B8
:10307000A3D8FC90F245E07003023220E4F090F215
:1030800046F090F247E0640F60030231BD90F228F1
:10309000E060030231BD1233A590F593E0F8A3E0A0
:1030A000F97583F2758243C3E098A3E09950459087
:1030B000F22D1233B5803212480790F291E064107D
:1030C00060F590F272E070EF90F227E070E9752100
:1030D000017821121E9990F359121C847902125022
:1030E0002A7401121DAC1251C479007A297BF212A4
:1030F000323D80C690F243E0F525A3E0F52612327A
:10310000251212B390F35D7821121C66782579217F
:1031100012187790F3617821121C667825792112B4
:1031200014BB90F3557825121C7585252185262220
:103130008527238528247821121335E52124309012
:10314000F22DF0A3742E12322F7821121335E522BE
:10315000123A791212B37825792112163B90F36551
:103160007821121C66782579211214BB85252185CA
:1031700026228527238528247821121335E521244A
:103180003090F22F12322F7825121335E5261232A5
:10319000251212B37821792512163B90F365782514
:1031A000121C66782179251214BB7821121335E59B
:1031B00021243090F230F0A3E4F0F9805790F22906
:1031C0007441F0A3744EF0A37441F090F247E060B4
:1031D0001414600D24FD601114601224FE600E8032
:1031E000107801800E7802800A78038006780480C7
:1031F00002E0F874402890F22C1233C4121E917928
:10320000047A2E7BF21257217404121DACE990F25D
:103210002DF079007A297BF212323D90F29DE4F094
:103220007F08021E513395E0F527F528782522F016
:103230008525218526228527238528242274F612B8
:103240001DEBE9FE90F227E060030232E390F27199
:10325000E0F8749528F874F53400F988828983744D
:103260000CF0E82403FCE93400FD8C828D8374614A
:10327000F090F2491232E8F090F24A1232E8A3F0EC
:10328000E82406F8E93400F9E82409F521E93400D6
:10329000F5228003EF600E8A828B83E0FF60068850
:1032A000828983800688828983742D123B188A82E2
:1032B0008B83A3AA82AB83E521687003E522697042
:1032C000D3EE90F227F075210C7522007821121EA2
:1032D000957A187BF21262B97402121DAC90F272E8
:1032E0007401F07F03021E511232F0A3A3A3A322A4
:1032F000E0888289832274F1121DEB122ED7790F98
:10330000123B7490F245E060FAE4F090F24612331A
:10331000C41212B390F35D7825121C6678217925CA
:1033200012187790F3617825121C6678217925129E
:1033300014BB90F3697825121C6678217925121444
:103340006F500790F225E0D2E0F090F225E0604661
:103350001233A5A31233B5803212480790F291E0E0
:10336000641060F590F272E070EF90F227E070E97F
:103370007521017821121E9990F359121C8479024B
:1033800012502A7401121DAC1251C479007A297BA3
:10339000F212323D80C690F54EE0F97A247BF312AA
:1033A000323D02322090F2297442F0A314F0A3744B
:1033B00054F0A3F022744CF0A3744FF0A37457F0B0
:1033C000A3E4F022F090F243123A33123A7D22C085
:1033D00082C08390F3C2E4F090F29EF0A3F0F97AF9
:1033E0002C7BF312323D022EED74F1121DEB74FFB3
:1033F000121D967D00852982852A83E4F090F27162
:10340000E0F874DA28F52174F53400F5228521827C
:10341000F583E0640C600302362BA3A3A3E0646190
:10342000600302362B852182852283A3A3A3A3E018
:10343000F8700E852182852283A3A3A3A3A3E06055
:103440002090F249E068600302362BA3E0F8852162
:1034500082852283A3A3A3A3A3E068600402362B82
:103460000DED75F00EA4F8A9F074B228FA741F39A6
:10347000FB8A828B83E493F52374636523605E7C0F
:1034800000EAF8EBF990F271E02406F524E5212436
:1034900006FEE5223400FF88828983A3E493F525A4
:1034A00074236525700E852982852A83E0700EE5D8
:1034B00024F080098E828F83E06525701B0C8E823C
:1034C0008F83A3AE82AF83052488828983A3A882D9
:1034D000A983ECC3940940BF74096C708385298269
:1034E000852A83E0700F90F271E025232406852958
:1034F00082852A83F0E521240FF582E5223400F548
:1035000083E4F08A828B83A3A3A3A3A3A3A3A3A38F
:10351000A39314700302372A1470030235C3147086
:103520000302363314700302364B147003023678EC
:1035300014700302369D14700302373814700302AE
:1035400037411470030237411470030237D71470E7
:103550000302374A1470030237B51470030237E0D0
:103560001470030237E914700302384B147003021D
:10357000388824F970030239D9147003023A2624DA
:10358000FA700302381824FE70030239B314700372
:1035900002394A14700302389424EE700302391081
:1035A00024FB700302394024F770030239161470AB
:1035B00003023A3124FA700302389C147003023972
:1035C000FC8043123AEC7027852182852283E0F546
:1035D00021E4F522F523F5247821121E91123AAB4D
:1035E000F9EEFAEFFB12583B7404121DAC80041282
:1035F0003A6AF0790090F271E0FA74E02AFA74F510
:103600003400FB12323D90F226E0601F1248079012
:10361000F291E064107008124807E0641060F890BE
:10362000F304121C8412557B1255EA7401121DAC6E
:10363000023220123AEC700B852182852283123AE5
:10364000DE8091123A6AF0A3EB80A7123AEC700B7D
:10365000852182852283121EA88082EEFAEFFB125A
:1036600061EE8A258B268C278D28852182852283F1
:103670007825121C750235F3123AEC7017852182F9
:10368000852283121EA8123AABF9EEFAEFFB12590B
:103690000F0235E8EEFAEFFB125F2F80C5EA240B2C
:1036A000123AAEF8740193F9123AABFD852982857E
:1036B0002A83E0FA74DA2AFE74F53400FF8E828FD2
:1036C00083E0642D7C007024ED70030235F3888262
:1036D0008983123AB8123B180C8E828F83A3AE8274
:1036E000AF83ECC39D40030235F380E2ED7003022B
:1036F00035F38E828F83E0F52188828983A3AA82A5
:10370000AB83742D6521888289836004E521800163
:10371000E4F0EAF8EBF90C8E828F83A3AE82AF83DC
:10372000ECC39D40030235F380C890F227E070039C
:10373000023606E4F002360679007A357BF302366B
:103740000379007A3E7BF3023603123ABE90F517F6
:10375000E0642E70448E828F83E0642D603B7A009B
:103760007B00EEF8EFF988828983E0C0E074172AC5
:10377000F58274F53BF583D0E0F0EA24010AEB34DE
:1037800000FB88828983A3A882A983C3EA9406EBFD
:103790009400A2D265D03340CD78007900123A5F10
:1037A000123AB8123B0EA3AE82AF83123A8740039F
:1037B0000235F380E890F516E060030235F37401FA
:1037C000F078007900123A5F742E123B0E123A879D
:1037D00040030235F380EE79007A477BF30236032B
:1037E00079007A4D7BF3023603123AE3E0FA8E82D7
:1037F0008F83E0FB742D6B7015742D6A701090F53B
:103800001D123AB8F090F51E1232F00235F2EB902C
:10381000F51DF0EAA30235F2123AE38E828F83E0BF
:10382000FB742D6B701588828983E0642D700C9079
:10383000F54B123AB8F090F54C80CDEB90F54BF08B
:1038400088828983E090F54C0235F2123AFF7012BB
:1038500090F51FE0FCA3E0FDEEFAEFFB125700022B
:1038600035F3123A9B7904EEFAEFFB12562C90F5E1
:103870001FEAF0A3EBF090F51FE0F8A3E0F990F257
:103880004BE8F0A3E9023734123A9490F22674011F
:10389000F002360C790F123B74023606123AFF70B2
:1038A0003190F593123AD41212CE90F36D7825121E
:1038B0001C66782179251214BB90F3717825121CAF
:1038C00066782179251216607821121E91790402FA
:1038D000368AEEFAEFFB125F2F8A218B228C238D22
:1038E0002490F3757825121C66782179251214BB73
:1038F00090F3797825121C66782179251216607864
:103900002112133590F593E521F0A3E5220235F25B
:10391000123A94023606123ABE90F27B123A3312F1
:103920003A79121E9179038E828F83A3AA82AB8388
:103930001257217404121DACE98E828F830235F276
:103940007A157BF5123EF10235F3123A548A828BD6
:1039500083E0642D6021123A43121C75123A3B60D9
:103960000790F2AC7401800E90F52BE4F090F565B1
:10397000F090F563F0A3F090F563123AD4121E9123
:10398000790390F271E0FA74E52AFA74F53400FBD9
:1039900012583B7404121DACE0F874E828F874F572
:1039A0003400F990F5651232F060030235F2745379
:1039B0000235F290F5667821121C66E521123A3C38
:1039C000700302360690F52B7410F0123DCA1233C4
:1039D000CF90F2AC7401023734123A54123A4312C7
:1039E0001C75123A3B700302360690F2AC7401F07B
:1039F00090F52B7420F01233CF023606123AFF7086
:103A00001790F52BE0F521E4F522F523F524782134
:103A1000121E9179030235E1EEFAEFFB125C76EAB1
:103A200090F52B0235F290F52BE4F0123DCA0235E9
:103A3000F380FEE0F521A3E0F52222EA45224523AA
:103A4000452422125E708A218B228C238D2490F5CE
:103A500066782122E521240BFAE5223400FB22744A
:103A60001728F58274F539F58322EEFAEFFB125C24
:103A700076852182852283EA22123A7D223395E0DF
:103A8000F523F524782122C3E89406E99400A2D214
:103A900065D03322123A9B123DCA227900E52124D7
:103AA00006FAE5223400FB12323D22EA240DF582AB
:103AB000EB3400F583E49322E08E828F8322123A66
:103AC000C222852982852A83E0F874DA28FE74F5FB
:103AD0003400FF22123ADEF523F524782122123A2F
:103AE00033E422123B06A3A882A98322EA240BF521
:103AF00082EB3400F583E493F521740193F52212EF
:103B00003B06E0642D22123AC28E828F8322F0E8B7
:103B1000240108E93400F922F088828983A3A8826D
:103B2000A98322C0E0C0D0E8C0E0E9C0E0C021C065
:103B300022C082C083E5BAF521E5BBF52274047882
:103B400021121D7490F243E521F0A3E522F0540800
:103B50006004E044F0F090F2457401F090F246E425
:103B6000F0D083D082D022D021D0E0F9D0E0F8D0BC
:103B7000D0D0E032C082C08390F246E0702975B99F
:103B800002D2A9D2AFE990F247F090F245E4F0906A
:103B9000F24604F0740E696005740F6970047430A5
:103BA000800274B049F5B6D083D0822274F8121D19
:103BB000EB7408121DE1E0F88A828B83ECF0A3ED30
:103BC000123CD84D6010E8123BDBE4F08A828B8314
:103BD000A3123BDBA3F07F01021E51A3A3F08A8254
:103BE0008B83A3A3A3A32274F7121DEB8921EA24DC
:103BF00003F8EB3400F988828983123CC5E521F093
:103C0000EA2402FCEB3400FD88828983E0FE8C828A
:103C10008D83E06E700688828983E4F0EA2404FED6
:103C2000EB3400FF88828983E0F88E828F83E0681E
:103C300070268A828B83A3A3A3A3A37401F08E8230
:103C40008F83E004F8F08C828D83E06870068E82AA
:103C50008F83E4F07901800279007F02021E5174A3
:103C6000F8121DEBEAFEEBFF8C828D838008EEFAE2
:103C7000EFFB123BE7A3E0F970F4023BD674F812B5
:103C80001DEBEA2404F8EB3400F98A828B83A3A3AA
:103C9000A3E0FC88828983E06C70047900802312A1
:103CA0003CC5E090F248F088828983E0FC8A828BF0
:103CB00083A3A3E06C700688828983E4F090F248C5
:103CC000E0F9023BD6E0FC74012C123CD82CFEA398
:103CD000E034008E82F58322F08A828B83E022C05A
:103CE00082C0838A828B83A3A3A3E0F9EA2404F52C
:103CF00082EB3400F583E0F8E9C398E0F84005E989
:103D0000C398800A8A828B83A3A3E0C39829F9D041
:103D100083D0822274F7121DEB7A007B00EA240024
:103D2000F582EB347CF583E0F46011EA2480FAEB51
:103D30003400FBC3EA9481EB940340E1EA4B605FFB
:103D40007521807522007821121E95EA2480FCEBF3
:103D5000347BFD7A157BF51262B97402121DAC90AA
:103D6000F562E0705E90F515E06448702C90F54ABD
:103D7000E0F890F549F074016890F27170047401F4
:103D80008001E4F090F552E090F551F090F54DE0AF
:103D900070037405F07901802CE0C3940A502490DC
:103DA000F516E4F0781579F588828983A3A3743039
:103DB00012406DE8641A7003E964F570EB90F51C2D
:103DC0007431F079007F02021E5174F7121DEB78F6
:103DD000007900E82400FCE9347CFD8C828D83E0CE
:103DE000F4700D7521807522007821121E958027B0
:103DF000E82480F8E93400F9C3E89481E9940340A9
:103E0000D27A007B7C12428975218075220078214C
:103E1000121E957C007D7C7A157BF512420274029D
:103E2000121DAC80A0C082C08390F5157448F0903C
:103E3000F562E4F090F5287408F090F38F121C847A
:103E400090F533121C9090F52DE4F090F52174A5B7
:103E5000F0A3745AF090F52C7405F090F52F7407C8
:103E6000F090F53174C812402490F524740CF0A33E
:103E70007410F0A312402490F537742BF090F529BC
:103E80007408F090F530E4F090F548F090F523F0E8
:103E900090F54F740312402490F52A7403F090F5C6
:103EA0002E7448F090F54D7405F090F551E4F0A3B0
:103EB000F0A3F0A37430F0A37418124024A3F0A36D
:103EC000F0A3F0A3F090F393121C8490F55B121C06
:103ED00090781579F5E8244A124061E86417700378
:103EE000E964F570F07A157BF5123EF1D083D0824B
:103EF0002274F7121DEBEAFEEBFFEE241612405778
:103F00008E828F83A3A3A3A3A3A3A3A3742D124084
:103F100029124029A374A5F0A3745AF090F2817479
:103F2000A5F0A3745AF0EE2434124057EE24351253
:103F30004057FAEEF8EFF9E82423F582E912403B06
:103F4000EAF00A88828983A3A882A98304C3941013
:103F500040E5EE2436124040243712404024391206
:103F600040387405F0EEF8EFF9E82432FAE934004D
:103F7000FBE8244E124061EA687002EB6970F2902F
:103F8000F397121C84EE245D124038121C907A7D47
:103F90007BF3125E7090F566121C9090F2AC740187
:103FA000F07521067522007821121E957C827DF322
:103FB000EE245612404C121DAC7521057821121EBC
:103FC000957C897DF3EE246312404C121DACEE24E7
:103FD0004D1240387401F0EE2455124038740AF046
:103FE000EE2472124038747D124024EE2474124084
:103FF00038746412402490F39B121C84EE247612D1
:104000004038121C9090F39F121C84EE247A1240C8
:1040100038121C90EE247E124038740EF0A3740403
:10402000F0023DC5F0A3E4F022F08E828F83A3A3BB
:10403000A3A3A3A3A3A3A322F582EF3400F58322B5
:10404000F582EF3400F583742DF0EE22FAEF3400A0
:10405000FB1262FF740222F582EF3400F583E4F074
:1040600022F582E93400F583E412406D22F0888263
:104070008983A3A882A98322C082C0837800758225
:10408000C37583F67478C398F008A3E8C39410400E
:10409000F3C2AC90F2707403F075B305EA2410F823
:1040A000EB3400F98A828B83E0F5B1A3AA82AB835B
:1040B000E86A7002E96B70ECE5B3A2E350FAD083D2
:1040C000D0822274F5121DEBE9FE8C23EC70057989
:1040D000000241B0740F252354F0FFEE6036EC6F00
:1040E00060328C24ECC39F502B8C21EA2521F8EB05
:1040F0003400F990F26FE0600788828983E48006DB
:10410000E5E288828983F00524A3A882A983E524B7
:10411000C39F40DFEFC490F26EF074F2F5D375D216
:104120004D75B3077582C37583F6E0F5B1A3E582DB
:1041300064D37004E58364F670F0E5B3A2E350FA4B
:1041400090F26D7401F090F25F74DFF0A374B1F03F
:10415000A3E4F090F263741DF0A37441F0A374DF44
:10416000F0A374B2F090F269E4F090F26B741EF078
:10417000A37411F0EF90F262F090F26AF0EB90F21B
:104180005DF0EAA3F074F490F267F0A37415F0C246
:10419000ACEE90F270F07918125CBDC298C299D260
:1041A000ACD2AFE0600575B301800375B303EFF9DE
:1041B0007F04021E51C0E0C0D075D018C082C083F9
:1041C000C298C29990F270E064037004C2AC80207F
:1041D000E090F26E6012E014F0600575B30180109B
:1041E00090F26D7402F080E4E014F060F375B303B4
:1041F000D083D082D0D0D0E022D083D082D0D0D093
:10420000E03274F7121DEB7409121DE1E0FEA3E029
:10421000FFEB90F255F0EAA3F0A374DFF0A374AFC4
:10422000F0EF541FA3F0EEA3F0A37412F0A37442B6
:10423000F074F2F5D375D24DE5AEA2E740FA75AB56
:10424000228C218D2274097821121D64E521F5AD9F
:104250008C218D2274017821121D64E521F5AC7941
:1042600004125CBD121246124274E960FA79017FB1
:1042700002021E51E5D1A2E24003790022E5AE54CC
:10428000C070F753D1FB79012274F7121DEBC3EB19
:104290009440500B90F523E004F0123DCA8030E5C5
:1042A000AEA2E740FA75AB228A218B2274097821ED
:1042B000121D64E521F5AD8A218B2274017821124B
:1042C0001D64E521F5AC121240E5AEA2E740FA808C
:1042D0009EC082C08390F561E0F874016870171287
:1042E00043197430F090DF11E4F090DF1B7411F08B
:1042F00090F29114800E74026870191243197410B0
:10430000F090F291F075E10490F3A3121C84125521
:104310007B75E103D083D0822290F52CE075F00903
:10432000A4F8A9F090F529E0FA745B2AFA74213414
:1043300000FBEA28F582EB39F583E49390DF2DF05A
:1043400090DF047422F090DF0E2274F1121DEB74E2
:10435000FC121D96852982852A83EAF0A3EBF0A33F
:10436000ECF0A3EDF07413121DE17825121C6685A4
:104370002982852A837821121C66E52175F00CA418
:10438000F521A8F075F00CE522A428F52274A025EB
:1043900021FA74213522FB75E104E52575F003A4AB
:1043A000F8ACF075F003E526A42CF9749A28F8749B
:1043B0002139F9E824FD12457F90DF0BF0E824FE57
:1043C00012457F90DF0AF0E824FF12457F90DF0955
:1043D000F0852521852622E52175F009A4F521A87F
:1043E000F075F009E522A428F52290F529E0F8748B
:1043F0005B28F874213400F9E82521F582E935229B
:10440000F583E49390DF2EF08A828B83E090DF07C0
:10441000124578E090DF0C124578A3E090DF0D1292
:104420004572E090DF0E124572A3E090DF11124555
:1044300089E090DF1A124589A3E090DF15124598B4
:10444000E090DF16124598A3E090DF17F0EA240908
:10445000F8EB3400F988828983E090DF18F08882D5
:104460008983E090DF19F0EA240BF582EB3400F544
:1044700083E090DF1CF090DF08E4F090DF1B741005
:10448000F090DF147418F090F3A7782512124A7098
:1044900004740A8002742A90DF1DF0A3E4F0A37470
:1044A0001FF090DF237488F0A37431F0A37409F037
:1044B00090F6E5744DF0A3E4F090F531E0F521E4D9
:1044C000F522F523F52490F3AB7825121C667821AC
:1044D0007925121A5DAA21AB22AC23AD247412F9FE
:1044E000125D2490F2B9E05403F9852982852A836C
:1044F000C082C08390F3AF7821121C66D083D08233
:10450000782112124A70047440800274204990DFAE
:104510000FF090F2BAE090DF10F090F532E090DF0B
:1045200006F090F283E0600B90F52AE0F890DF0649
:10453000E028F090DF137430F090DF037404F0A3F0
:104540007445F0A3E4F090F549E090F271C0826008
:104550000590F525800390F524E07583F2D082F86C
:10456000E028240290DF02F07404121DAC7F0802E0
:104570001E51124578A3A322F08A828B83A322F5D1
:1045800082E934FFF583E4932212458D22F08A827A
:104590008B83A3A3A3A3A32212458DA3A32274F507
:1045A000121DEB12463C121E9112462D121DAC90AC
:1045B000F561E060051242D1800812464590F28410
:1045C000E4F07F04021E5175E10475D6812274F572
:1045D000121DEBEAFEEBFF90F284E0601A12463CFB
:1045E000121E9112462D121DAC90F284E4F012546A
:1045F000F690F288121C9090F2917410F075E1041C
:1046000075D68112466590F271E0F8749528F874B9
:10461000F53400F9EF88828983A3F0EE88828983DC
:10462000A3A3F07901125CBD75E103809590F52F8D
:10463000E0FAE4FBFCFD12434A74042290F52C12CC
:1046400047FC782122C082C08375E10475D6819031
:10465000F2917420F01246657901125CBD75E10299
:10466000D083D08222F9124B35439A01759110D232
:10467000AF2274F1121DEB74FC121D9690F284E0CF
:1046800060030247F290F291E0641070030247F277
:1046900090F52BE0703E90F55B7821121C66E521C9
:1046A000452245234524602C1254F68A218B228C06
:1046B000238D2490F2887821121C4E90F55B78218E
:1046C000121294500F12463C121E9112462D121DCA
:1046D000AC12464590F290E06071E4F0124991E925
:1046E000603690F528E06402703190F272E0702537
:1046F00090F5DAE02401F521E43400F52278211266
:104700001E957CDA7DF57A957BF51262B9740212FA
:104710001DAC90F2727401F002479D90F549E06083
:104720001A90F26DE0707E124AF4E0FCE82403FA7D
:10473000E93400FB79001240C3806A124AFCE0FAB7
:1047400088828983E0C39A24FE804E90F549E07008
:104750000690F285E0604E90F291E0641060469021
:10476000F26DE06402703E90F271E0F874DA28FABB
:1047700074F53400FB8A828B83E0F5217522007882
:1047800021121E957C157DF4EA24030A0A0AEB1215
:104790004968121DAC90F26DE4F0122D57790112A8
:1047A0005CBD75E10290F283E0640270451254F63C
:1047B000852982852A83121C9090F54D1247FC9022
:1047C000F3AB7825121C6678217925121A5D8529AC
:1047D00082852A837825121C6690F2777825121C30
:1047E0004E78257921121274500890F283E4F01269
:1047F000459E7404121DAC7F08021E51E0F521E4B1
:10480000F522F523F5242274F7121DEB7F0090F2B8
:1048100084E0601190F272E0700B90F26DE064023F
:10482000600302496390F28FE0603E90F286E024DC
:1048300001F0A3E03400F090F283E0600F90F532D5
:10484000E0F890DF06E068700312459E90F28FE476
:10485000F00F90F272E0701190F550E06008FAE409
:10486000FBFCFD12557B12464590F272E07003028C
:10487000491190F291E064107008EFA2E040030249
:10488000491190F271E0F8749528F58274F53400BE
:10489000F583E0FE1254F690F273121C90EFA2E042
:1048A000401490F284E0700E90F54FE06008FAE456
:1048B000FBFCFD12557B90F528E06402701390F22A
:1048C0007DE0600890F51F124988803F90F52180B7
:1048D000F690F549E0602690F2917410F0EEFC90AD
:1048E000F271E0F8749828FA74F53400FB7901123B
:1048F00040C3E9F8E028240290F595800D90F2710C
:10490000E02E240290F595124971F090F272E48045
:104910005190F549E0700690F285E0604690F29182
:10492000E06410703E90F26DE06402703690F271B7
:10493000E0FA90F595E0C39AF895E0F9E824FEF5E1
:1049400021E934FFF5227821121E957C157DF4743F
:10495000982AFA74F5124968121DAC90F26DE412AF
:104960004971F07F02021E513400FB1262B97402D9
:1049700022F090F28112498890F51FE0F8A3E0F947
:1049800090F281E8F0A3E922E0FAA3E0FB1245CE21
:104990002274F7121DEB90F5DAE0FE74DA2EF521A1
:1049A00074F53400F522852182F583A3E0F9124ADB
:1049B0000A90F27BEAF0A3EBF090F271E02402F8A7
:1049C000E43400F9E89EE99400C365D03350369092
:1049D000F5DAE090F28EF0E5212402F582E522344A
:1049E00000F583E0A2E7501DE4F01254F690F2883F
:1049F000121C90124A55E9700890F553E064027059
:104A00000479018002790002496374F7121DEBE911
:104A100090F28CF0A3E4F090F28CE0C39480E0502C
:104A200012C313FA90F6E5E0F8A3E0F9EAC398FAA6
:104A3000E4801DF879FF7A027B00121D038821892A
:104A40002290F6E5E0F8A3E0F9E521C398FAE52223
:104A500099FB02496374F8121DEB90F27FE4F0A316
:104A6000F090F27DF090F27EF0124AF4A3AA82ABAD
:104A700083E0F52190F24CE06521701388828983F0
:104A8000A3A3E0C0E090F24BE0FCD0E06C60239088
:104A9000F528E06402703590F521E0FEA3E0652181
:104AA000702A88828983A3A3E06E702090F27D74BF
:104AB00001F090F553E0700D8A828B83E4F08882D8
:104AC0008983A3A3F079017F01021E5174F055215F
:104AD00064F0701690F27E7401F088828983A3A33B
:104AE000E090F27FF0A3E52180C790F556E070C218
:104AF000790080D3124AFC888289832290F271E087
:104B0000F874DA28F874F53400F922C0E0C0D0C097
:104B100082C08353E9EF539BFC90F291E0641060F4
:104B20000590F290800390F28F7401F0D083D082D0
:104B3000D0D0D0E032C082C08390F299E054F044EB
:104B400002F090F2987413F0741069704B74F59041
:104B5000F292F0A37495F0A374DFF0A374D9F0A3DC
:104B6000E0541F4420124BF3600D90F525124C10B9
:104B7000C08290F525800B90F524124C10C08290D5
:104B8000F524E07583F2D082F8E028240390F297B0
:104B9000F090F2997442804E742069704A90F292BB
:104BA00074DFF0A374D9F074F5A3F0A374DAF0A362
:104BB000E0541F4480124BF3600D90F525124BFE1C
:104BC000C08290F525800B90F524124BFEC0829098
:104BD000F524E07583F2D082F8E028240590F2975E
:104BE000F090F2997412F074F2F5D575D492D083E6
:104BF000D08222F090F271E0FA90F549E022124C56
:104C0000222405EB3400448090F296F090F2712259
:104C1000124C222403EB3400442090F296F090F2E0
:104C20007122E02AFAE43400FBEA2274F5121DEB4B
:104C3000791C125D24E9700C90F2BA7453F090F272
:104C4000B97408F090F2BAE0F5C290F2B9E5C55433
:104C5000E0F8E048F5C57F04021E5153C4FE43C48A
:104C6000022274F7121DEBE9FEE5F154FE4402F551
:104C7000F143F30C90F52DE0A2E0500543F31080D2
:104C80000353F3EF90F533121C84124C2B438680B0
:104C9000124C5B90F559E0600543C404800353C493
:104CA000FB90F558E0600843C40843C410800653E5
:104CB000C4F753C4EF6401700543C420800353C498
:104CC000DF90F52DE0A2E0500543C440800353C4BB
:104CD000BF53C5DFEE603075214275220078211286
:104CE0001E957C617DF67AD97BF6123BAC7402127C
:104CF0001DAC7821121E957C1F7DF67AD37BF612AF
:104D00003BAC7402121DAC124D1490F6EBE4F07F34
:104D100002021E51C28B5386FB438640D2AFD2AAF9
:104D200022C0E0C0D075D008C082C083C28BE5C16C
:104D3000FCE5865418704E90F6DCE02401F8E4346B
:104D400000F9A3E0687001E97005A374018029905F
:104D5000F6DCE0F8740128F0790090F6D9E028FA42
:104D6000A3E034008A82F583ECF090F6DCE0F89062
:104D7000F6DBE0687003A3E4F090F2B1121C8490BB
:104D8000F6DF121C90D083D082D0D0D0E022D08326
:104D9000D082D0D0D0E032C082C08390F6EBE06009
:104DA00003024E3DE586A2E05003024E3D90F6D64A
:104DB000E0F8A3E0687003024E3DE0F890F6D6E01C
:104DC000C3985012A3E0F87442C398124E4690F66E
:104DD000E9E4F0A38015E0F8A3E0FAE8C39A124EE4
:104DE0004690F6D6E090F6E9F0A3E4F090F29AC38C
:104DF000E09411A3E09400401C90F29A7410F0A388
:104E0000E4F090F6D7E02410F8E43400F990F6E9E5
:104E1000E8F0A3E9F090F6EB7401F090F29A121E1C
:104E2000AC90F6D7E0F8741F28FC74F63400FD79D6
:104E3000017A4D7BF2124E537402121DAC7A007B44
:104E400000D083D08222F895E0F990F29AE8F0A39E
:104E5000E9F02274F7121DEBECFEEDFF7409121D50
:104E6000E1E0FCA3E0FD8E828F83A3A882E5838A24
:104E7000828B83F0E8A3F08A828B83A3A374DF1272
:104E80004EE374C1F0EA2404F8EB3400F9EC24FF9B
:104E9000ED34FF541FF52188828983E054E04521D9
:104EA000F0EC148A828B83A3A3A3A3A3F088828946
:104EB00083E0541F124EDC740F124EDCA37448F0D2
:104EC00074F2F5D375D24D7902125CBDD2AFD2B86F
:104ED000C2C08E828F83E0F5C1024D0F124EE3A354
:104EE000A3A322F08A828B83A3A3A322C0E0C0D015
:104EF000E8C0E0E9C0E0C082C083C2C0E5D1A2E161
:104F0000501053D1FD90F6E9E090F6D7F090F6EB13
:104F1000E4F0D083D082D0E0F9D0E0F8024D92C026
:104F200082C08353F47F53FE7F53F67F53F5F853CB
:104F3000FFE0E5F754E04408F5F790F576E0600B04
:104F400043F72043F74043F780800953F7DF53F7D7
:104F5000BF53F77F538A7FC2EB758B00C2E8438D46
:104F600080438C20438C01438C02A2A35005438CC8
:104F7000048003538CFB439A10439A02D2AFD08330
:104F8000D08222C0E0C0D075D018C082C083E58A2C
:104F900090F2AAF0538A7FC2EB53BEFCD083D0823A
:104FA000D0D0D0E032C0E0C0D075D010C082C08375
:104FB000E58B90F2ABF0758B00C2E880DCC0E0C0FE
:104FC000D075D010C082C08390F29C7401F0C2C72B
:104FD00053A1FE80C474F5121DEB8A218B228C2311
:104FE0008D2490F3D97821121294500890F3DD7833
:104FF00021121C6674057821121BE2FA90F31478D2
:1050000021121294500E74057821121BC90AEAC3AA
:10501000940340E8E52190F2A4F0E52290F2A5F097
:10502000EA90F2A6F07F04021E5174F2121DEBE921
:10503000FE8A218B228C238D24740E121DE1E0F850
:10504000E5D5F527E5D4FF90F2ACE048F074036EA7
:10505000601690F3E17821121294400C12557B9067
:10506000F29C7401F00251BF75A80075B800759AE2
:10507000001245C7124F1F90F2A9E4F090F2AAF077
:1050800090F2ABF053BEFBE5BEA2E550FAE5C65484
:10509000F84441F5C6E5C6A2E650FA43BE047402E0
:1050A0006E600574036E702EE5D5F527E5D4FF43D9
:1050B000D68174026E700B74F390F3D1F0A374C3B5
:1050C000800974F390F3D1F0A374CAF074F3F5D5AA
:1050D00075D4D175D60190F2A6E5A254FCF8E0484B
:1050E000F5A2E5A67004E5A5600A90F2A77401F0A8
:1050F000A3E4800690F2A7E4F0A3F090F29CF0A95C
:1051000022AA23AB24E521494A4B606074036E60F8
:105110005B90F2ACE06049AA21AB22AC23AD241233
:105120004FD5E4F053A2FC43A204E5A5F83395E083
:10513000F9E5A5687001E960F8E5A5F83395E0F9AF
:10514000E5A5687001E960F890F2A6E5A254FCF8C4
:10515000E048F5A290F2A4E0F5A390F2A5E0F5A452
:10516000C2C753A1FE43A110D2AD800FE5A5F8330D
:1051700095E0F9E5A5687001E960F843C7028EBEC5
:10518000000000E5BE5403600875D70100438701A5
:105190000053C7FD74026E600574036E70088527A6
:1051A000D58FD475D601C2C753A1FEC2AD90F29C73
:1051B000E0600CC2AF90F2B17821121C27D2AF7F11
:1051C00007021E51C082C08353BEFB78467902C2DB
:1051D00092E824FF18E934FFF9E84970F2E5BEA22D
:1051E000E650FA53C6B8E5C6A2E640FA43BE04123A
:1051F00055577A387BF51240787900124C6290F25C
:10520000847401F0024F7E74F5121DEB90F3C2E03E
:10521000601014606214607224FE70030252AE02C9
:10522000532690F5667821121C661254E270030230
:10523000532612532B90F23F7821121C4E90F566A4
:10524000782112129440030253261254F690F23F32
:10525000121C9090F3C27401F090F29EE4F0A3F05F
:105260001254F690F2A0121C9079007AB37BF312DC
:10527000323D7901025328790F123B7490F29D74EC
:1052800001F090F3C27404F080E812532B90F2A066
:105290007821121C4E90F3E5782112129450D379A4
:1052A000007AB97BF312323D90F3C2E480D97C00DE
:1052B000781579F57A297BF28015ED8A828B83F057
:1052C0000CA3AA82AB8388828983A3A882A983E8DE
:1052D0002463F582E93400F583E0FD6006ECC394B5
:1052E0000640D78C2174292521F58274F23400F50B
:1052F00083744F125343F874F23400F990F237E09C
:10530000888289837004744E800774461253377400
:1053100046125337E4F0F97A297BF212323D90F3CA
:10532000C2740202528779000250251254F68A2173
:105330008B228C238D2422125343F58274F2340085
:10534000F58322F00C8C21742925212274F4121D7E
:10535000EB90F52BE070030254DD90F576E0A2E0CF
:10536000209701B350030254DD90F3C2E064037050
:10537000061233CF0254DD90F23AE0F9600690F263
:1053800039E0600690F238E07015A2A3E43390F2A1
:1053900037F0A3E0F890F237E06860030254DDE9EB
:1053A000603A125207E960030254DD752101782149
:1053B000121E9990F58B121C84790212502A7401E6
:1053C000121DAC90F58B7821121C6690F2AD7821FD
:1053D000121C2790F2AC7401F002549C125207E99F
:1053E00060030254DD90F5667821121C661254E2C7
:1053F000606A90F2AD7821121284500E90F2AD786E
:1054000021121C4E90F2AC7401F090F3E9121C844E
:1054100090F2AD121C9090F3D97821121294503C66
:105420007525017825121E9990F3DD121C847902EE
:1054300012502A7401121DAC90F2AC7401F090F37A
:10544000ED7821121C1490F576E0A2E0209701B3CC
:10545000400A90F3D9782112129440C490F576E076
:10546000A2E0209701B340341254E2601475250085
:105470007825121E99AA21AB22AC23AD2479028093
:105480001353A1EF7521007821121E9990F3E912B0
:105490001C84790312502A7401121DAC1251C4905D
:1054A000F52BE064207016E4F090F3E9121C849070
:1054B000F566121C9090F2AC74011254EB90F576E4
:1054C000E0A2E0209701B3501490F29EE4F0A3F024
:1054D00090F3C27402F090F2AC141254EB7F050208
:1054E0001E51E52145224523452422F079007AB357
:1054F0007BF312323D22C082C083C2AF90F2B11260
:105500001C8490F2B5121C90D2AF90F2B5121C849C
:10551000D083D08222C0E0C0D075D010C021C0227C
:10552000C023C024C082C083E5E4A2E45018E5E4AF
:10553000540F44E0F5E490F3F17821121C6690F2E8
:10554000B17821121C27D083D082D024D023D0223E
:10555000D021D0D0D0E03253C6C753E4EFD2DE53CF
:10556000E5BF53E6BF53E7BF75DB0B75DAB8E5E47B
:1055700054F04406F5E4D2AFD2B92274F1121DEB17
:1055800074FC121D96852982852A83EAF0A3EBF02C
:10559000A3ECF0A3EDF01254F68A218B228C238D1C
:1055A000241254F68A258B268C278D28782579217C
:1055B000121C3A852982852A83782512129450E19B
:1055C0007404121DAC7F08021E51E5C954FC49F554
:1055D000C9E5C9540F44A0F5C9E5C9540F4450F5B5
:1055E000C9E5C954FB4408F5C922C2AF7902125576
:1055F000CA80FEE9F8749F28C3941A500474DF58D7
:10560000F92274D029C3940A500574D029F9227460
:10561000BF29C3941A500574C929F922749F29C35C
:10562000941A500574A929F92279002274F1121DE7
:10563000EB74FE121D96852982852A83EAF0A3EB7E
:10564000F0E9FE90F3E97825121C66EEC394094058
:10565000047E088003EE6045852982852A83E0F870
:10566000A3E0F58388821256C9F521852982852A0F
:1056700083E02401F8A3E03400F9852982852A8398
:10568000E8F0A3E9F074047825121BE2F522F52373
:10569000F52478257921121C011EEE70BBAA25ABDA
:1056A00026AC27AD28740280027403121DAC7F085B
:1056B000021E51E9F8C3940A5005743028F9227487
:1056C0003728F9227F01021E51E0F9125602E92221
:1056D000C082C083E9C4540FF8C3940A50047430E4
:1056E00080027437288A828B83F0A3740F59F89450
:1056F0000A500474308002743728F0D083D082229C
:1057000074F8121DEB8A828B83ECFEEDF91256D0F1
:10571000EEF9E5822402FAE5833400FB1256D080CC
:10572000A374F1121DEB74FD121D967401121DE19C
:105730001258FE121DE11258EE601179007C30748F
:1057400001121DE11258E512582E70FB7412121D41
:10575000E1C082C08390F3E97821121C66D083D027
:1057600082782112125F405E1258DA121DE178250C
:10577000121C6690F39B7821121C66782579211201
:105780001B771258C5121DE17825121C6690F39BF9
:105790007821121C6678257921121B777412121D4C
:1057A000E17825121C757412121DE17821121C6615
:1057B0001258D1600D7401121DE1C3E09AA3E09B61
:1057C00040A6792B80651258DA121DE17825121C4B
:1057D0006690F39B7821121C6678257921121B773D
:1057E0007430C395218A828B83F07412121DE17884
:1057F00025121C6690F39B7821121C66782579216E
:10580000121B777412121DE17825121C7574121286
:105810001DE17821121C661258D1600D7401121D11
:10582000E1C3E09AA3E09B409D792D0256A9ECF0DC
:10583000A3E824FF18E934FFF9482274F1121DEBA4
:1058400074FD121D967401121DE11258FE121DE125
:105850001258EE601179007C307401121DE112586B
:10586000E512582E70FB1258DA121DE17825121C31
:105870006690F39B7821121C6678257921121ADD37
:105880001258C5121DE17825121C6690F39B7821F1
:10589000121C6678257921121ADD7412121DE17826
:1058A00025121C757412121DE17821121C66125803
:1058B000D1600D7401121DE1C3E09AA3E09B40A6E4
:1058C000792B0256A9E52124308A828B83F0741249
:1058D00022E52145224523452422EA24FF1AEB3400
:1058E000FFFB741222E0FDA3E0F5838D8222E02805
:1058F000FAA3E03400FB852982852A83E022EAF0BE
:10590000A3EBF0E9852982852A83F0F874012274DB
:10591000F1121DEB74FD121D967402121DE1E9F0E7
:10592000EAFEEBFFE0852982852A83F07401121DCF
:10593000E1E4F07402121DE1E4F07412121DE1784A
:1059400025121C6690F3E97821121C6678257921CE
:1059500012146F502C8E828F83742D125C6A8529ED
:1059600082852A83E014F07412121DE17821121C42
:1059700066E524B2E7F5247412121DE17821121CA9
:1059800075852982852A83E0F9125CF38A258B26A6
:105990008C278D2878251212CE7412121DE17821E1
:1059A000121C667825792112146F4003025B35853D
:1059B0002982852A83E0C394035003025C3F74125A
:1059C000121DE17825121C6690F3F57821121C66F1
:1059D0007825792112142050467412121DE1782581
:1059E000121C6690F3657821121C667825792112C5
:1059F00018777412121DE17825121C757402121D9D
:105A0000E1E004F07412121DE17825121C6690F397
:105A1000F57821121C667825792112142040BA7479
:105A200002121DE1E0F525E4F526F527F52804121C
:105A30001DE1125C4A79251212744005E004F080E1
:105A4000DE7412121DE1121C8412132BE521243086
:105A50008E828F83125C6A7412121DE17825121CEB
:105A6000667412121DE1121C8412132B782112127B
:105A7000B37825792112163B8E828F83A3AB838561
:105A80002982852A83E0F87401121DE1E0FCE8C355
:105A90009CF895E0F9C3E89404E9125C42404C8E0E
:105AA000828F83742EF00EEBFF7401121DE1E0F87B
:105AB000852982852A83E0C39824FDF0125C4F1269
:105AC00012CE782579211214BB782512133578254A
:105AD000121E917404121DE1125C5E121DAC852928
:105AE00082E0F8EE28FEEF340080277402121DE1F8
:105AF000E014F090F3657821121C66782579211264
:105B000014BB7825121335E52524308E828F83F05F
:105B10000EEBFF8E828F837445125C6A7402121D35
:105B2000E1E0F521E4F522F523F5247821121E9118
:105B30007405025C367412121DE1121C8412132BC0
:105B40001258D17014852982852A83E014C0E0742C
:105B500001121DE1D0E0F080407821121E91740402
:105B6000121DE1125C5E121DAC7A00EEF8EFF980B6
:105B7000127401121DE1E004F00A88828983A3A84F
:105B800082A983852982852A83E0FBEAC39B500989
:105B900088828983E0643060D87401121DE1E0C31B
:105BA000940278215003025C31121E917405121D7B
:105BB000E1E0F87404121DE1E0C398F9EEFAEFFB9E
:105BC0001257217404121DAC852982E0F874011269
:105BD0001DE1E0FAE8C39AF895E0F9EE28FEEF3906
:105BE000FF8E828F83742E125C6A7401121DE1E0B5
:105BF00014C0E07402121DE1D0E0F07412121DE135
:105C00007825121C6678211212B378257921121694
:105C10003B7402121DE1125C4A1212CE78257921E2
:105C20001214BB78251213357825121E9174068044
:105C300005121E917404121DE1125C5E121DAC026D
:105C400056A99400A2D265D03322E0125C4F22F90B
:105C5000125CF38A218B228C238D24782122E0F997
:105C6000EEFAEFFB125721740422F0A3AE82AF8349
:105C7000227F02021E5174F7121DEB78007900801A
:105C80001EE875F00AA4F8ACF075F00AE9A42CF946
:105C9000E52124D0FCE434FFFDE82CF8E93DF98A45
:105CA000828B83E0FCA3AA82AB838C21600974D031
:105CB0002521C3940A40CAE8FAE9FB80B4748049FC
:105CC000F5D6E942D6000000000000000000000008
:105CD00000000000000000000000000000000000C4
:105CE00000000000000000000000000000000000B4
:105CF00000002274F1121DEBE9FF90F3F1782512F8
:105D00001C66EF6014FE90F39B7821121C667825C8
:105D10007921121A5D1EEE70EDAA25AB26AC27ADD7
:105D2000280256AE74F1121DEB74F5121D96E9852A
:105D30002982852A83F08A218B228C238D2490F25C
:105D4000B9125E66F87401121DE1E8F0A3125E66F6
:105D5000FB24F0FA78211212CE7407121DE1E5211E
:105D6000F0A3E522F0A3E523F0A3E524F0740112EB
:105D70001DE1C3E09410A3E0125C424022752101B2
:105D8000752200EA7821121D837405121DE1E521B8
:105D9000F0A3E522F07403121DE1E4F0A3801F7468
:105DA00005121DE1E4F0A3F0752101F522EB782145
:105DB000121D837403121DE1E521F0A3E522F074A6
:105DC00003121DE17821121C6678211212CE74078D
:105DD000121DE17825121C66782179251214BB90DA
:105DE000F3F97825121C667821792512187790F33B
:105DF000FD7825121C667821792512146F402290B7
:105E0000F2B9E004F01A1B7401121DE1E024FFF066
:105E1000A3E034FFF090F2B9E0C394125003025DA6
:105E20006D90F2B9E0C39412503590F401782512C8
:105E30001C667821792512166090F3E97825121CEA
:105E4000667821792512146F500690F2BAE4800A20
:105E50007821121335E52190F2BAF07901800279A8
:105E600000740B0256ABE4F0852982852A83E02278
:105E700074F1121DEBEAFEEBFFEE4F6048125C7608
:105E80008A218B22A821A92290F563E8F0A3E9F0EA
:105E9000E8496028C3E894E8E99403501F8E828F94
:105EA00083A3A3A3E0F890F565F07444687016909E
:105EB000F563C3E09432A3E09400400990F563E4F5
:105EC000F0A3F0A3F090F563E0F521A3E0F522E460
:105ED000F523F524852125852226E52545266044E0
:105EE000A3E0F8745368701190F3AB7825121C6628
:105EF00078217925121A5D802B744D68700590F415
:105F00000580E8744868700590F35980DE74446831
:105F1000700590F40980D4745468600890F3E978AF
:105F200021121C66AA21AB22AC23AD240256AE740A
:105F3000F1121DEB74F7121D96EAFEEBFF740412CA
:105F40001DE1E4F08004E8FEE9FF8E828F83A3A8C0
:105F500082A983126131A2E340EC742D6A700EE8CD
:105F6000FEE9FF7404121DE17401F08009742B6ACC
:105F70007004E8FEE9FF90F3E9121C84852982850C
:105F80002A83121C90803B852982852A83782512DA
:105F90001C6690F3657821121C667825792112140D
:105FA000BB12614F1212B378257921121660852930
:105FB00082852A837825121C758E828F83A3AE82F8
:105FC000AF838E828F8312614940BC90F40D121C06
:105FD000847405121DE1121C908E828F83E0642E62
:105FE00070658055852982852A837825121C6690E4
:105FF000F3657821121C66782579211214BB126191
:106000004F1212B378257921121660852982852ACC
:10601000837825121C757405121DE17825121C6603
:1060200090F3657821121C66782579211214BB74CF
:1060300005121DE17825121C758E828F83A3AE8216
:10604000AF83126149409D126131A2E0EA500244DF
:1060500020F8E8646560030260DD8E828F83A3AA66
:1060600082AB83126163802D852982852A837825FE
:10607000121C6690F3657821121C6678257921122E
:106080001877852982852A837825121C75EA2401D0
:106090000AEB3400FBC3EB9400A2D265D03340C8B6
:1060A000C3EA9401EB9400A2D265D033402F852936
:1060B00082852A837825121C6690F3657821121C4C
:1060C00066782579211214BB852982852A83782553
:1060D000121C75EA24FF1AEB34FFFB80C38529826A
:1060E000852A837821121C667405121DE178251219
:1060F0001C6678217925121877852982852A83786C
:1061000021121C757404121DE1E0A2E0852982852C
:106110002A837821121C665006E524B2E7F524AAEA
:1061200021AB22AC23AD247409121DAC7F08021EE2
:10613000518E828F8312613922E0FA74012AF5822E
:1061400074223400F583E49322126139A2E222EA38
:1061500024D0F521E434FFF5223395E0F523F5242E
:1061600078212274F8121DEB7E008004E8FAE9FB26
:106170008A828B83A3A882A9831261DAA2E340EC0E
:10618000742D6C70030E8005742B6C7004E8FAE9B2
:10619000FB780079008026E875F00AA4F8AFF07566
:1061A000F00AE9A42FF9EC28F8E439F9E824D0F84A
:1061B000E934FFF98A828B83A3AA82AB831261DA66
:1061C000A2E240D3EEA2E05008C3E498FAE499803A
:1061D00003E8FAE9FB7F01021E518A828B83E0FC0F
:1061E00074012CF58274223400F583E4932274F157
:1061F000121DEB7C008004E8FAE9FB8A828B83A302
:10620000A882A9838A828B83E0FE74012EF58274B2
:10621000223400F583E493A2E340DC8A828B83E09E
:10622000FD742D6D70030C8005742B6D7004E8FAFD
:10623000E9FB90F3E97825121C668040C02190F3B9
:106240009B7821121C6678257921121A5D7524002D
:10625000752300752200D02178217925121C019028
:10626000F4117821121C14852125852226852327E7
:106270008524288A828B83A3AA82AB838A828B831C
:10628000E0F8882174012521F58274223400F58319
:10629000E493A2E240A6ECA2E050057825121BB8D8
:1062A000852521852622852723852824AA21AB221E
:1062B000AC23AD247F08021E5174F7121DEB740944
:1062C000121DE1E0FEA3E0FFEAF8EBF980188C82F2
:1062D0008D83E088828983F0A3A882A9838C828D34
:1062E00083A3AC82AD838E218F22E52124FF1EE59E
:1062F0002234FFFFE521452270D47F02021E517433
:10630000F7121DEB7409121DE1E0FEA3E0FFEAF8AD
:10631000EBF98E218F22E52124FF1EE52234FFFFB9
:10632000E521452260338C828D83E0A3AC82AD836E
:106330008A828B83F0A3AA82AB8370D6EEFCEFFD3A
:10634000EC24FF1EED34FFFFEC4D600D8A828B8341
:10635000E4F0A3AA82AB8380E3E8FAE9FB7F0202C0
:026360001E51CC
:04000005000010D314
:00000001FF
